:020000040800F2
:1000000000300020A52600088D2400088F24000859
:1000100091240008932400089524000800000000A3
:10002000000000000000000000000000972400080D
:1000300099240008000000009B2400089D2400086B
:1000400013270008172700081B2700081F27000890
:1000500023270008272700082B2700082F27000840
:1000600033270008372700083B2700083F270008F0
:1000700043270008472700084B2700084F270008A0
:1000800053270008572700085B2700085F27000850
:1000900063270008672700086B2700086F27000800
:1000A00073270008772700087B2700087F270008B0
:1000B0009F240008BF2400088B2700088F27000812
:1000C00093270008972700089B2700089F27000810
:1000D000A3270008C1240008C3240008AF27000894
:1000E000B3270008B7270008BB2700082DE9F04F09
:1000F000A1B017461C46029002AD69600020A862BC
:100100000DF1440A6FF0004802E0A86A401CA862A2
:10011000387818B9A86A21B0BDE8F08F252816D123
:10012000002028616861A861E8612862686217F8A8
:10013000011F202908D023291BD02B2912D02D29BB
:1001400014D0302918D01AE040F00100EFE717F87A
:10015000011B6868029A904768600028D5D14FF06B
:10016000FF30D8E740F0020080B2E0E740F0040042
:10017000FAE740F00800F7E740F01000F4E72A291A
:100180000DD12268111D216011682963002904D551
:100190004942296340F0040080B27F1C12E0002134
:1001A000296309E0296B414505D001EB810302EB8E
:1001B0004301303929637F1C3A78A2F13001C9B27A
:1001C0000A29EFD339782E291CBF4FF0FF31E9629D
:1001D0001DD117F8011F2A2906D12268111D21609F
:1001E0001168E9627F1C12E00021E96209E0E96A16
:1001F000414505D001EB810302EB43013039E9624F
:100200007F1C3A78A2F13001C9B20A29EFD3A8863F
:100210003978DFF8540B02F025FA08B117F8010B12
:100220008DF83E009DF83E00682804D13878682893
:100230000AD1622005E06C2806D138786C2803D1F9
:1002400071208DF83E007F1C11A8E8603A781046B6
:10025000413800F0B680001F022840F2B280133807
:1002600070D0093800F0AD80801E17D0401E1FD01E
:10027000401E022840F2A580001F19D0401F00F048
:10028000CF80401E5ED0401E00F0F880C01E00F0FF
:100290000081801E56D0C01E54D00FE12869411C39
:1002A00029612268111D2160116800F80A100CE113
:1002B0009DF83E006C280FD071280BD12068C01D1E
:1002C00020F007002060034603F108002060D3E916
:1002D000000106E06A28F1D02168081D2060086846
:1002E000C1179DF83E30682B08BF00B207D0622BC3
:1002F00008BF40B203D0742B01D07A2B00D1C117B4
:10030000002904DA2B695E1C2E612D260DE0AB8ED0
:100310009E0704D52B695E1C2E612B2605E0DB07AA
:1003200005D52B695E1C2E61202603F80A602B6917
:1003300011AE3344AB60CDE90001114600A800F0D6
:1003400058F9C2E09DF83E006C280FD071280BD1FF
:100350002068C01D20F007002060034603F108005C
:100360002060D3E9000106E06A28F1D02168081D69
:100370002060086800219DF83E30682B08BF80B2DD
:1003800007D0622B08BFC0B203D0742B01D07A2BE8
:1003900000D1002195F834301B07C8D509B90028D1
:1003A000C5D042F02003782BC1D12B695E1C2E6191
:1003B000302603F80A602B695E1C2E6103F80A20C0
:1003C000B5E72068C01D20F007002060034603F158
:1003D00008002060D3E90001CDE90001BDF8060066
:1003E000000404D52869411C29612D210DE0A88E47
:1003F000810704D52869411C29612B2105E0C0072C
:1004000005D52869411C2961202100F80A102869B6
:1004100011A94018A860114600A800F071F954E035
:100420009DF83E0062280BD0682820D06A280ED0A4
:100430006C2815D071280AD0742811D07A280FE0C2
:10044000A86A2268111D2160116808703DE0A86A41
:10045000C11723681A1D22601A68C2E9000134E03E
:100460002168081D20600868A96A01602DE0A86A5B
:100470002268111D21601168088026E02168081D8E
:100480002060086811A9A9600021CDE90001782148
:1004900054E72168081D20600868A860EA6A002AFD
:1004A00002D502F00FF807E0002101F07BFF0028E1
:1004B0001ABFA968401AE86A686106E02869411C09
:1004C000296102B9252200F80A207F1C286B2969BE
:1004D000401AE969401A6969401A296A401AA969EB
:1004E000401A696AA0EB010995F83400400711D45D
:1004F00020208DF840000026B9F1010F0ADB01220F
:1005000010A900A800F03AFC00287FF428AE761C61
:100510004E45F4DB2A6911A900A800F02FFC002841
:100520007FF41DAE30208DF84000EE694FF0000BD7
:10053000012E0BDB012210A900A800F01FFC0028EF
:100540007FF40DAE0BF1010BB345F3DB6A69A968CB
:1005500000A800F013FC00287FF401AE30208DF8D5
:1005600040002E6A4FF0000B012E0BDB012210A978
:1005700000A800F003FC00287FF4F1AD0BF1010BA3
:10058000B345F3DBAA696869A968411800A800F0BF
:10059000F5FB00287FF4E3AD30208DF840006E6A53
:1005A0004FF0000B012E0BDB012210A900A800F078
:1005B000E5FB00287FF4D3AD0BF1010BB345F3DB72
:1005C00095F8340040077FF5A3AD20208DF840005A
:1005D0000026B9F1010FFFF69BAD012210A900A87A
:1005E00000F0CCFB00287FF4BAAD761C4E45F4DB5E
:1005F0008EE52DE9FA4786B00446606900909DF8C3
:1006000018006F2808BF082705D040F02000782880
:1006100014BF0A2710273C25D4E900010646894665
:100620009DF81820642A01D0692A04D1002902DA31
:10063000764269EB4909B9F1000F02D10EB9606B3E
:1006400060B3A5F101084546F817CDE904703046BE
:100650004946DDE9042301F0C9F9CDE90201B246BA
:10066000DDE90223DDE90401A0FB02695046801B9D
:100670003030C0B23A2803D39DF818105139081809
:10068000009908F80100DDE90269B9F1000F00D115
:1006900026B12069009969188842D2D3082F0BD15E
:1006A00094F83C00000707D50098285C302803D058
:1006B0006D1E009830212954C5F13C00E06100997D
:1006C00069182161616B884206DA081A6062A08F9E
:1006D00020F01000A08710E000290ED594F83C10FF
:1006E00001F01401102908D1A16BA269891A626A6C
:1006F000891A0D1A012DA8BF656208B0BDE8F08700
:100700002DE9F24F8EB0054604AFD5E90001CDE9E1
:1007100002019DF8380040F020008DF800006128AB
:100720000BD0686B002848BF062005D405D19DF882
:100730000000672801D101206863E888C0F30A102F
:1007400040F2FF71884222D1A8790F21084205D1D9
:10075000A88818B9688808B9288868B10320E861B2
:100760009DF838006138C0B21A2836D389A1032217
:10077000286901F087FDC7E10320E8619DF8380092
:100780006138C0B21A2834BF83A184A1EFE70128E1
:1007900004DA284601F0C6FC01281BDA40F2FE31DB
:1007A000EA8861F30E12EA80441A4FF0FF309DF898
:1007B0000010612917D12A69511C2961302111705B
:1007C00029694A1C2A619DF83820612A0CBF7822C9
:1007D000582204E000240020E9E7CDA1C7E70A7011
:1007E000A969891CA96110B90026B04682E19DF86B
:1007F0000000612840F09580686B00284EBF2126DC
:10080000461C36B2771CD5E900ABDDE902010022B7
:10081000002301F073FE3ABF8BF00040CDE902A047
:10082000CDE902ABA4F104088DF810200DF11109F7
:10083000012F33DBDDE902010022002301F076FE07
:100840002CD21C2102A801F087FADDE9020101F097
:10085000D5FD0446FF1F012F09DB01F07FFE024694
:100860000B46DDE9020100F04BFFCDE9020109F280
:1008700007000721012C0BDB491E5EBF04F00F02AD
:1008800000F8012D2411F5D502E0002200F8012D19
:10089000491EFAD500F20709012FCBDA0DF111003C
:1008A000A9EB00000DF11107B042B8BF06B2002E4F
:1008B00030D4864206DA04A830184078082828BFC9
:1008C0000F2000D20020314604AA8A1801E0761ECB
:1008D00036B2491E12F801398342F8D00F2804D1EC
:1008E00004A808184278521C4270002904D504AFAD
:1008F000761C36B208F10408304609E0C15D30319B
:10090000C9B23A2903D39DF838203A3A5118C15553
:10091000401EF3D5686B002840F1EC80701E6863C0
:10092000E8E0DDE902010022002301F0E7FD05D245
:10093000DDE9020181F00041CDE9020124B247F274
:1009400097506043DFF8241490FBF1F80FFA88F811
:10095000C8F107040027DFF81894012C20DBDDE93B
:1009600002ABE00707D5504659463A464B4600F0E1
:10097000F5FD82468B466410384649463A464B465A
:1009800000F0ECFD07468946002CEAD1CDE902AB28
:1009900028E000BF4E414E00696E6600494E460099
:1009A00064429246DFF8CCB314D0E00707D5504636
:1009B00059463A464B4600F0D1FD82468B466410BC
:1009C000384649463A464B4600F0C8FD0746894638
:1009D000002CEAD1DDE9020152465B4600F09AFCA8
:1009E000CDE902019DF8000066280CBF08F10A005D
:1009F0000620696B4418142CA8BF132430208DF8EE
:100A000010000DF11106012C30DBDB4F11E0DDE9A8
:100A1000020101F009FD01F0ABFD02460B46DDE9E4
:100A2000020100F06DFE00223B4600F097FDCDE98B
:100A30000201DDE9020101F0F7FC06F108010422E0
:100A40000A23B0FBF3F603FB1600303001F8010D6A
:100A5000B6FBF3F003FB1063303301F8013D521E87
:100A6000EED101F10806083C012CD0DA0DF111009D
:100A7000301A0DF111079DF81110302906D1401ED2
:100A8000A8F1010817F8011F3029F8D09DF80010CF
:100A9000662904BF0FFA88F808F1010103D065291F
:100AA0000CBF012100216A6B8E1836B2B042B8BF6C
:100AB00006B2002E1ED4864204DAF05D352828BF27
:100AC000392000D230203146CA19521E01E0761E6C
:100AD00036B2491E12F801398342F8D0392802D1C2
:100AE000C85D401CC855002904D57F1E761C36B24F
:100AF00008F101080FFA88F0009033463A469DF855
:100B00003810284600F006F80FB0BDE8F08F00005E
:100B10006E616E002DE9F04385B00546894690462A
:100B20001E46BDF930406F6B012EBCBF01260FF28F
:100B3000342849F02000662807D067287AD16FF062
:100B400003018C427CDBBC427ADA641C66280AD042
:100B500095F83C00000702D4BE42B8BF374624B225
:100B60003F1B48BF00272869E96924B2012C21DA1C
:100B70004A1C30230B54012F03DA95F83C10090767
:100B800002D52E211154521CEA61E742B8BF7C42C3
:100B900024B26142A962E719B742B8BF3E4636B2F5
:100BA0002E6232464146EB69181801F06BFBB81B08
:100BB000E862BFE00818A64216DA3246414601F064
:100BC00061FBE9697118E961A01BA862012F03DAD2
:100BD00095F83C00000705D528692E220A54286A9A
:100BE000401C2862EF62A5E02246414601F04AFB24
:100BF000E8692018E861361B012F03DA95F83C10EC
:100C0000090704D5411CE96129692E22425436B2F4
:100C1000B742B8BF3E4636B2324604EB0801E86937
:100C20002B69C01801F02EFBE8693018E861B81B89
:100C3000A8627FE0B9F1610F14D14FF0700916E09E
:100C4000BE4204DA95F83C10090758BF37467F1EAC
:100C500048BF0027B9F1670F14BF4FF045094FF0A7
:100C6000650904E0B9F1410F08BF4FF05009E96987
:100C70004A1C286918F8013B0B54012F03DA95F838
:100C80003C10090702D52E211154521CEA61012F94
:100C900010DB761E36B2B742B8BF3E4636B2324699
:100CA0004146EB69181801F0EDFAE8693018E8617F
:100CB000B81BA862E869296900EB010808F8019BE4
:100CC000002C5CBF2B2008F8010B03D52D2008F861
:100CD000010B6442002602AF24B2012C0EDB0A2273
:100CE000214600A801F0E6FC019807F8010B009CE2
:100CF000761C24B2012CF2DA022E06DA49F020002A
:100D0000652804BF302008F8010B1EB9302008F810
:100D1000010B09E0012E07DB761E02A8305C3030A3
:100D200008F8010B012EF7DAE86929694018A8EBE9
:100D30000000286295F83C0000F0140010280DD146
:100D4000A869E9690818A96A0818296A0818E96AE7
:100D50000818A96B8842BCBF081A686205B0BDE8D4
:100D6000F083000030000000DC260008A0860100AF
:100D7000000024400000F03F84D79741F8B50446B6
:100D80000D46164600208EB14FF0FF3705E0206B70
:100D9000401C20630020761E08D015F8011BE06877
:100DA000A2689047E0600028F1D13846F2BD00000B
:100DB000DFF89C02006850F00100DFF89412086030
:100DC000DFF890020068DFF890120840DFF8841224
:100DD0000860DFF87C020068DFF880120840DFF866
:100DE00070120860DFF86802016821F48021016058
:100DF000DFF86002006830F4FE00DFF85812086087
:100E0000DFF85C025FF41F0101607047DFF84012F9
:100E10000A6822F480320A60DFF834120A6822F489
:100E200080220A60B0F5803F03D0B0F5802F09D052
:100E300011E0DFF81C02006850F48030DFF8101277
:100E4000086008E0DFF80802006850F4A020DFF82E
:100E500000120860FFE7704780B500200090002076
:100E60000021312000F0D2F801000098401C0090D1
:100E70000098B0F5A06F02D0C9B20029F1D031209E
:100E800000F0C4F8002801D0012000E00020C0B22A
:100E900002BD00226F4B1B681A0032F47C1208431B
:100EA00002436C48026070476E49C0B208607047E8
:100EB0000021684A126811008908890001436548C9
:100EC000016070476348006810F00C007047002113
:100ED000604A1268110031F0F00101435D48016081
:100EE000704700215B4A1268110031F4E061014350
:100EF0005848016070470021564A1268110031F4C9
:100F0000605151EAC00153480160704730B400227B
:100F10000021002300244F4D2D6815F00C052A00F8
:100F2000002A04D0042A05D0082A06D021E04F491F
:100F3000016020E04D4901601DE04649096811F457
:100F40007011444A126812F48033890C891C002BFA
:100F500003D1474A514301600DE03E4A12689203B3
:100F600003D5434A5143016005E0404A51430160C3
:100F700001E03E4901603749096811F0F0021209A9
:100F80003C49545C0168E14041603249096811F410
:100F9000E062120A3749545C4168E14081602D49A2
:100FA000096811F46052D20A3249545C4168E14048
:100FB000C1602849096811F44042920B2E49545CE3
:100FC000C168B1FBF4F1016130BC7047C9B20029BE
:100FD00005D02A49096808432849086005E02749DF
:100FE000096831EA0000254908607047C9B2002944
:100FF00005D02349096808432149086005E02049D4
:10100000096831EA00001E490860704710B40022E8
:1010100000230021C0B24409E4B22200012A02D117
:101020000B490B6806E0022A02D10F490B6801E068
:1010300014490B68C0B210F01F0201209040034217
:1010400001D0012100E000210800C0B210BC7047AF
:1010500000100240041002400000FFF8FFFFF6FEFF
:1010600008100240600042422010024000127A0044
:1010700000093D0000300020103000201810024010
:101080001C1002402410024053480068411C524A80
:101090001160B0F57A7F07D94F48002101604F48B1
:1010A0000068401C4D490860704780B500F0A0F80A
:1010B00000F0D9F800F012F800F0BCFD00F0ECFDF3
:1010C00001F018F900F001F9012000F0C5FD012040
:1010D00000F0D2FD424801F07DFAFEE780B5132012
:1010E000ADF8000003208DF8020010208DF80300F9
:1010F00000A93C4800F0AAFF10213A4801F00CF882
:101100000121384801F008F80221364801F004F8BE
:1011100018208DF803004FF40070ADF80000032094
:101120008DF8020000A92F4800F090FF04208DF8F0
:1011300003004FF48060ADF8000000A9294800F0DA
:1011400085FFE020ADF8000003208DF80200182094
:101150008DF8030000A9234800F078FF4FF4407099
:10116000ADF8000003208DF8020010208DF8030078
:1011700000A91D4800F06AFF4FF480711A4800F082
:10118000CBFF4FF40071184800F0C9FF0120ADF803
:10119000000003208DF8020048208DF8030000A90C
:1011A000114800F053FF4FF44040ADF80000032019
:1011B0008DF8020010208DF8030000A90B4800F004
:1011C00045FF4FF48041094800F0A6FF4FF400416D
:1011D000064800F0A1FF01BD1830002014300020A7
:1011E000C426000800080140000C01400010014026
:1011F00080B5FFF7DDFD5FF48030FFF707FEFFF7F6
:101200002BFEC0B2012824D1102001F02FF90220BA
:1012100001F020F90020FFF75AFE0020FFF76BFED7
:101220004FF48060FFF75DFE5FF4E0115FF4803003
:10123000FFF72FFE0120FFF737FE3920FFF7E6FE0C
:101240000028FAD00220FFF733FEFFF73BFE082804
:10125000FBD101210120FFF7C9FE012145F21D004C
:10126000FFF7B4FE01BD80B54FF4C06000F0BEFFD3
:1012700025208DF8000000208DF8020001208DF857
:10128000030000A800F0B7FF26208DF80000002022
:101290008DF8020001208DF8030000A800F0ABFFDC
:1012A0001C208DF8000001208DF8010000208DF831
:1012B000020001208DF8030000A800F09CFF00212F
:1012C0005FF0006000F0CAFF01BDE0B54FF47A7036
:1012D000ADF804000020ADF800000020ADF80600D5
:1012E0000020ADF8020000A95FF0804000F00CFC87
:1012F000012247215FF0804000F069FC01215FF08E
:10130000804000F04BFC012201215FF0804000F0A2
:1013100052FC07BDF0B540F2FF7581EA030C0CF0FA
:10132000004C15EA11541DBF15EA1357AC42AF42E9
:10133000E5E0BC41C1F31301C3F31303801A9941E3
:1013400043F4801304D2641E40004941801859417F
:10135000C90241EA5051B1FBF3F603FB1611A2FB9F
:101360000675D7EBC020A94102D2761E80185941DC
:10137000C90241EA5051B1FBF3FE03FB1E11A2FB6F
:101380000E75D7EBC020A94103D2AEF1010E801833
:101390005941890241EA9051760546EA8E2EB1FB09
:1013A000F3F603FB1611A2FB0675D7EB8020A941CB
:1013B00002D2761E80185941C90241EA50514EEAC4
:1013C000060EB1FBF3F603FB1611A2FB0675D7EB75
:1013D000C020A94102D2761E80185941C90241EAB3
:1013E0005051B1FBF3F703FB1711A2FB0735D3EB09
:1013F000C020A94167F100070CBF004247F0010778
:1014000066F3D5274FEA1E31B80814F5806412DD63
:10141000BD0775F1004250EB0E5051EB045111F530
:10142000801F5CBF41EA0C01F0BD4CF07F6141F0D0
:10143000E0410020F0BDBD076D0840EA0E5041F4C8
:101440008011D4F10104B4F120060ADAC4F12006B7
:101450000200E04001FA06F3E1401843B2401543B0
:101460000EE0342C13DCC6F1200445EA40056D087B
:1014700020FA06F2154321FA06F0A1400D4300219F
:1014800075F1004250F1000051EB0C01F0BD00205D
:101490005FEA0C01F0BDCFB992185B41B3FA83F754
:1014A00004BFB2FA82F6BF190B3FB7F120062FBF77
:1014B00002FA06F3BB40C7F1200622FA06F638BF4F
:1014C0003343BA401CB1E419641E33E77F4231F064
:1014D0000041B1FA81F404BFB0FA80F6A4190B3CC4
:1014E000B4F120062FBF00FA06F1A140C4F1200696
:1014F00020FA06F638BF3143A0403C1B1AE7AC4245
:101500001ABF05EA1357AF4212E050EA41061CBF6A
:1015100052EA4306BFE750EA4107304661461CBF26
:1015200041EA0551F0BD52EA430C08BFC143F0BD8A
:1015300000204FF4001616EB410F98BF16EB430F37
:1015400008BF16EB410F24BFC14305E016EB430F64
:101550000CBF61464CEA0551F0BD0000B0B581EA10
:10156000030C0CF0004C40F2FF7515EA11541DBF3E
:1015700015EA1357AC42AF423AE0E41923EA455367
:1015800043F48013C90241F0004141EA50574FEA49
:10159000C02E1100AEFB020200284FF00000E7FB56
:1015A00001204FF00001E3FB0E2118BF42F00102C1
:1015B000401800214941E3FB0701A4F580640F03B3
:1015C00002D252004041494154F101046BDD470809
:1015D00072F1004250F1000051EB0451A1F580116D
:1015E0005CBF41EA0C01B0BD4CEA05510020B0BD22
:1015F00005EA1357AC4214BFAF4240E050EA410E37
:101600001CBF52EA430E02E061460020B0BD2442F6
:101610003C441AD13F42F7D0090302BF01460020E3
:10162000143FB1FA81FEA7EB0E0401FA0EF70EF19A
:101630000C0ECEF1200100FA0EFEC84047EA00076A
:1016400023EA455343F48013A3E733F00043B3FA8E
:1016500083F704BFB2FA82FE77440B3FE41BB7F175
:10166000200E2FBF02FA0EF3BB40C7F1200E22FA64
:101670000EFE38BF43EA0E03BA40641C82E750EA0C
:10168000410E14BF52EA430E6FF000014FF40017F1
:1016900017EB430F8ABF194617EB410FB6E74CEA29
:1016A00005510020B0BDD4F10104B4F120070FDAD8
:1016B000C4F12007520828BF42F0010210FA07F5D2
:1016C00001FA07F7E1BF2A43E0403843E1400FE069
:1016D000352C99DCC7F1200452EA400220FA07F2C7
:1016E00018BF42F0010231FA07F0A1400A4300217D
:1016F00072F1004250F1000051EB0C01B0BD00004E
:1017000070B44FF0004591EA030F44BF6B4000F006
:1017100032BC841A71EB030604D26E40001BB14147
:10172000121973414FF4001C1CEB410F34BF7CEBCA
:10173000430684E00C0DA4EB1356362E7DDC012EFF
:1017400043DC45EAC32343EA525312BFD20292025A
:101750005B08240545EAC12141EA5051D2EBC02083
:10176000994125D407D1B0FA80F610FA06F164D079
:101770000020203608E0B1FA81F6B140C6F120021F
:1017800020FA02F21143B0404FEAF474B4EB46542D
:1017900034F001064FEA74040AD8D6F50016760D27
:1017A00004F00044F04061FA06F25040F140484035
:1017B000C00A40EA415021F0004128BF5FEA5005CD
:1017C00050F1000044EBD12137E045EAC323DB0AA6
:1017D00045EAC121C90AB6F120050EDD42EA0242FE
:1017E000120CC5F1200603FA06F6EB4042EA0605A4
:1017F0006D42984161F100010DE062FA06F5F24098
:10180000554063FA06FC82EA0C02F3405A406D42EE
:10181000904161EB030111F4801F05D1641E620544
:1018200002D06D004041494121F48011430875F117
:10183000004350F1000041EB045170BC70471CEBB9
:10184000410F15D223F0004352EA43060BD04FEA72
:101850004C0CBCEB410F04D80C0D661E342EB7DDCA
:10186000EBE7801A994150EA410608BF0021E4E7FE
:1018700008BF1CEB430F28BF6FF00001DDE700003D
:1018800080B54E48006850F001004C4908604C4853
:1018900000684C4908404A490860484800684A497D
:1018A0000840464908604548016821F480210160EC
:1018B0004348006830F4FE004149086043485FF443
:1018C0001F01016000F005F841485FF00061016010
:1018D00001BD80B500F001F801BD82B0002001908B
:1018E000002000903548006850F48030334908608B
:1018F0003248006810F4003000900198401C0190BC
:101900000098002803D10198B0F5A06FF0D12B48C2
:101910000068800302D50120009001E000200090C3
:101920000098012847D12B48006850F01000294941
:10193000086028480068800880002649086025481B
:10194000006850F00200234908601D481C490968DE
:1019500001601B481A49096801601948006850F481
:101960008060174908601648006830F47C101449FC
:1019700008601348006850F4E810114908600F48E7
:10198000006850F080700D4908600C4800688001C4
:10199000FBD50B48006880088000094908600848AA
:1019A000006850F00200064908600548006810F021
:1019B0000C000828F9D102B0704700000010024066
:1019C000041002400000FFF8FFFFF6FE081002407E
:1019D00008ED00E00020024013F0004C03D55B420C
:1019E000524263F100039CEA210C15D11B4229D11C
:1019F00009424CD12AB18446B0FBF2F002FB10C27E
:101A0000704700F073BEFCD30022002370470B0028
:101A1000020000210020704710B5644603D34942FC
:101A2000404261F10001FFF7E1FF640004D3494245
:101A3000404261F10001244203D55B42524263F10E
:101A4000000310BD904271EB030CE0D370B5B1FA06
:101A500081F4B3FA83F52C1BA340C4F1200532FABC
:101A600005F63343A2405FF00046E64002E05B0823
:101A70005FEA3202841A71EB030524BF204629462F
:101A80007641F4D302000B003000002170BD012A22
:101A9000B9D970B5140C20D0B1FA81F4B2FA82F53C
:101AA000C4F120046419B4F12006D6D3B2405FF02B
:101AB0000044F440002502E052085FEA3303C61AEE
:101AC00071EB020E24BF3046714664416D41F3D381
:101AD00002000B002000290070BD0C46B1FBF2F1A2
:101AE00002FB11452D0445EA1045B5FBF2F402FB5B
:101AF000145580B240EA0545B5FBF2F002FB1052E6
:101B000040EA044070BD0000002203881A00DFF89C
:101B1000FC30984212D0DFF80C3198420ED0B0F170
:101B2000804F0BD0DFF8E830984207D0DFF8E43080
:101B3000984203D0DFF8E030984204D14FF68F731B
:101B40001A404B881A43DFF8D430984208D0DFF8A7
:101B5000D030984204D04FF6FF431A40CB881A4346
:101B600002808A8882850A880285DFF8A020904258
:101B70000FD0DFF8B02090420BD0DFF8AC209042BD
:101B800007D0DFF8A820904203D0DFF8A4209042CD
:101B900001D1097A0186012181827047C9B20029E9
:101BA00004D0018851F00101018003E0018821F097
:101BB000010101807047D2B2002A03D0828911430B
:101BC000818103E0828932EA0101818170470185C8
:101BD0008282704730B4002200230024058A0D4021
:101BE0002B008089084004009BB2002B04D0A4B2D3
:101BF000002C01D0012200E000221000C0B230BC55
:101C0000704789B2C943018270470000002C01402F
:101C10000004004000080040000C0040001000409C
:101C200000140040003401400040014000440140E5
:101C30000048014080B54FF48071444800F06FFACD
:101C4000022000F067F84FF48071404800F064FA19
:101C50000F2000F047F801BD80B5C0B2012805D1C2
:101C60004FF480413A4800F05AFA04E04FF48041C2
:101C7000374800F051FA01BD80B5C0B2012805D146
:101C80004FF40041324800F04AFA04E04FF40041BA
:101C90002F4800F041FA01BD00B585B05FF4E13096
:101CA00000900020ADF804000020ADF806000020F0
:101CB000ADF808000020ADF80C000C20ADF80A00CB
:101CC00000A9244800F0CCF80121224800F02AF9AC
:101CD00005B000BD4FF47A71484300E0401E002873
:101CE000FCD1704738B50400002503E0200000F067
:101CF00005F86D1CEDB20A2DF8D331BD38B50400DE
:101D0000002503E0200000F005F86D1CEDB2FA2D6F
:101D1000F8D331BD38B50400002503E00120FFF7FA
:101D2000D9FF6D1CADB2A542F8D331BD10B504008A
:101D30002100C9B289B2074800F001F980210548A5
:101D400000F001F90028F9D0200010BD000C01407E
:101D5000001001400038014070B504460D46E0888F
:101D6000C0F30A1040F2FF76B04210D1A0790F21E3
:101D7000084208D1A088002805D16088002802D137
:101D80002088002801D0022070BD012070BD30B92C
:101D9000204600F0C7F9012801DB002070BD45197D
:101DA000B54209DBE088000447BF00202A49002033
:101DB0002A49C4E90001E8E7012DE08805DB48F283
:101DC0000F01084040EA051041E000F40040A1790D
:101DD00001F00F0141F01001E1806D1E15F1340F8B
:101DE00005DAE0800020A0806080208070BD2DB2E8
:101DF0006FF00E018D420BDA62882280A288628029
:101E0000E288A2800022E28010352DB28D42F3DB01
:101E1000694209B20A0018D0C1F1100223880B41AF
:101E2000658895402B43238063880B41A5889540A6
:101E30002B436380A3880B41E58805FA02F21A431D
:101E4000A280E28822FA01F1E180E1880843E08083
:101E50004FF0FF3070BD00BF0000F0FF0000F07FCA
:101E6000F0B585B004000D00002000210022002301
:101E70000026AF89002F2600208A4CF6FF7108400B
:101E8000E98808432082A0894EF6F3110840A9880A
:101E90002A8911436A8911430843A081A08A4FF619
:101EA000FF410840A9890843A08200A8FFF72EF847
:101EB0001B48864201D1039900E00299A0890004E1
:101EC00007D5192000FB01F029684900B0FBF1F2A9
:101ED00006E0192000FB01F029688900B0FBF1F24F
:101EE0006420B2FBF0F000010109642303FB11231D
:101EF000A189090408D5D90032316422B1FBF2F17D
:101F000011F00701084307E0190132316422B1FBE7
:101F1000F2F111F00F010843208105B0F0BD00007F
:101F200000380140C9B2002904D0818951F4005120
:101F3000818103E0818921F4005181817047C905C5
:101F4000C90D8180704700224FF4007389B2994215
:101F50000088084201D0012200E000221000C0B237
:101F60007047000070B44FF0004591EA030C44BF85
:101F70006B40FFF7CEBB841A71EB030603D2001B44
:101F8000B141121973414FF4001C1CEB410F34BFD7
:101F90007CEB430443E00C0DA4EB1356352E50DCD0
:101FA00045EAC323DB0A45EAC121C912B6F120057F
:101FB0000DDD63FA05F6EB4086EA0305124218BF11
:101FC00045F00105C01851F100010CD213E062FA8E
:101FD00006F5F2405540F3415A40B340F3405A40B1
:101FE0008018594107D349085FEA30005FEA350598
:101FF00028BF45F0010501F58011420875F1004246
:1020000050F1000041EB045170BC4FF4001C1CEB7C
:10201000410F38BF70470020090D090570471CEBC0
:10202000410F10D252EA43060BD0BCEB410F05D84A
:102030000C0DAB43661E342EB5DD02E0AB438018B9
:10204000594170BC704770BC70470000F0B400226A
:102050000026002400250023002791F803C01CF06F
:102060000F0C624691F803C05FEACC6C01D58B7807
:102070001A430B781B0621D00368002406E0CD78B4
:10208000482D02D10125A5400561641C082C14D2FD
:102090000125A5400E882E40AE42F6D1A5000F26A0
:1020A00016FA05F7BB4312FA05F52B43CD78282D18
:1020B000E5D10125A5404561E7E703600B884FF4B2
:1020C0008074A34226D34368002420E0012514F144
:1020D0000806B5400E882E40AE4217D1A5000F2647
:1020E00016FA05F7BB4312FA05F52B43CD78282DD8
:1020F00004D1012514F10806B5404561CD78482D7D
:1021000004D1012514F10806B5400561641C082CB2
:10211000DCD34360F0BC704789B20161704789B27B
:102120004161704770B4C18801F400420121837994
:1021300013F00F03C38012D1838823B9438813B9E6
:102140000388002B4BD08388C38044888480048814
:10215000448000240480103909B2002BF3D0C388D6
:10216000102B16D28388C488DD0B45EA4404C48052
:102170004588EE0B46EA430383800388DE0B46EA7C
:10218000450545805B000380491E09B2A4B2102CAE
:10219000E8D3C388202B1ED303884488C4F30004EB
:1021A000E40344EA5303038043888488C4F30004AF
:1021B000E40344EA530343808388C488C4F30004DF
:1021C000E40344EA53038380C3885B08C380491C4B
:1021D00009B2202BE0D2837903F00F03C380C388B8
:1021E0001A43C280084670BC704700001E4908436D
:1021F0001E490860704710B4002100220F23C478E4
:10220000002C1ED01949096811F4E061D1F5E06194
:10221000090AD1F10402CB404178914082781A40FA
:10222000114309010278124BD15401784911114A26
:102230000123007810F01F0013FA00F042F821008B
:102240000AE0017849110C4A0123007810F01F00C0
:1022500013FA00F042F8210010BC7047074A114001
:1022600008430749086070470000FA050CED00E0DC
:1022700000E400E000E100E080E100E080FFFF1FFB
:1022800008ED00E04AB38B0707D011F8013B00F8D6
:10229000013B521E21D08B07F7D183071ED1103A84
:1022A00007D330B4B1E83810103AA0E83810F9D2AA
:1022B00030BC530724BFB1E80810A0E8081044BFA1
:1022C00051F8043B40F8043BD20724BF31F8022BFD
:1022D00020F8022B44BF0B7803707047083A07D3ED
:1022E000B1E80810083A40F8043B40F804CBF7D2B4
:1022F0005307E4E700B585B00020ADF800004FF4C7
:102300008270ADF802000020ADF804000020ADF8A6
:1023100006000020ADF808004FF40070ADF80A0088
:102320001020ADF80C000020ADF80E000720ADF82D
:10233000100000A9044800F009F80121024800F04B
:1023400024F805B000BD00000030014010B40022A8
:1023500003881A0012F441520B884C8823438C885E
:102360002343CC8823430C8923434C8923438C8902
:102370002343CC8923431A430280828B22F40062D8
:102380008283098A018210BC7047C9B2002904D037
:10239000018851F04001018003E0018821F04001F3
:1023A00001807047C9B2830706D0521E22D310F8AD
:1023B000013B9942F7D11FE0083A13D302F104021E
:1023C00041EA012141EA014150F8043B121F21BFBB
:1023D0004B40A3F1013C2CEA030C1CF0803FF3D0EE
:1023E000C9B2001F083210F8013B521E28BF91EA03
:1023F000030FF8D818BF0120401E7047F446400D67
:1024000040EAC120490006D200F013F8004248BF5C
:102410006FF00040604700F00CF84FF00041884238
:102420008CBF084640426047400D40EAC120490049
:102430000CD240F00040490DA1F58061491C05D443
:10244000D1F11F0154BFC840C01770474FF00000C2
:10245000704700000021DFF830201268110011F0F1
:1024600038010143DFF8200001607047DFF81810E1
:102470000A6822F010020A60DFF80C1009680843AD
:10248000DFF8041008607047002002407047FEE744
:10249000FEE7FEE7FEE7704770477047704780B57C
:1024A00001215FF08040FFF795FB012806D1012153
:1024B0005FF08040FFF7A5FBFEF7E6FD01BD70472A
:1024C0007047704700F10103810704D010F8011B29
:1024D00089B18107FAD10268B2F10131914311F05B
:1024E000803F04BF50F8042FF6E710F8011B11B12C
:1024F00010F8011BFBE7C01A704700004FF4001CE6
:102500001CEB410F94BF1CEB430F09E041EA030CA5
:1025100050EA4C0C52EA0C0C03D2994208BF90428C
:10252000704714BF8B428242704700004FF4001C7A
:102530001CEB410F94BF1CEB430F09E041EA030C75
:1025400050EA4C0C52EA0C0C03D28B4208BF824278
:10255000704714BF9942904270470000010040F15B
:102560000880F446404200F004F851F00041604712
:10257000010009D0B0FA80F18840C91CC1F584611E
:10258000090501EBD0214005704710B409E050F86F
:10259000041B50F8042B51F8044B42F8044B1B1F4A
:1025A000F9D150F8043B002BF1D110BC704700006A
:1025B000312600080C00000014300020000000004C
:1025C0008B25000814000000C427000800300020FC
:1025D000000000000EB400B582B003A9009100AB6A
:1025E000024601210248FDF781FD06BC5DF810FBA3
:1025F0007B26000810B50548054CA04204D050F8D1
:10260000041B8847A042FAD110BD00BFB0250008C6
:10261000D425000800B5054A1068002804D0110030
:102620000220ABBE0020106000BD00001C30002066
:10263000002305E050F8041B41F8043B121FFBD1B6
:1026400050F8042B002AF5D17047000000F0B7F8CD
:10265000002801D0FFF7CEFF0020FEF726FD00F096
:1026600041F800000278C9B28A421AB11CBF10F8C2
:10267000012FF9E718BF0020704738B504460D4612
:102680002846FFF753FBA84218BF0024204632BD5E
:1026900080B5FFF7BFFF024A11001820ABBEFBE771
:1026A00026000200014880470148004781180008C1
:1026B0004D26000891FBF2F303FB1211C0E9003133
:1026C000704700000D0A5735323030204556420021
:1026D00007463846FFF7DCFFFBE70000686A6C74CA
:1026E0007A4C000080B5FFF7F3BF00007047FFF79A
:1026F000CDBEFFF7CCBEFFF7CBBEFFF7CABEFFF7DC
:10270000C9BEFFF7C8BEFFF7C7BEFFF7C6BEFFF7DB
:10271000C5BEFFF7FEBFFFF7FEBFFFF7FEBFFFF727
:10272000FEBFFFF7FEBFFFF7FEBFFFF7FEBFFFF7DD
:10273000FEBFFFF7FEBFFFF7FEBFFFF7FEBFFFF7CD
:10274000FEBFFFF7FEBFFFF7FEBFFFF7FEBFFFF7BD
:10275000FEBFFFF7FEBFFFF7FEBFFFF7FEBFFFF7AD
:10276000FEBFFFF7FEBFFFF7FEBFFFF7FEBFFFF79D
:10277000FEBFFFF7FEBFFFF7FEBFFFF7FEBFFFF78D
:10278000FEBFFFF78CBEFFF79ABEFFF7FEBFFFF755
:10279000FEBFFFF7FEBFFFF7FEBFFFF7FEBFFFF76D
:1027A000FEBFFFF7FEBFFFF78BBEFFF78ABEFFF746
:1027B000FEBFFFF7FEBFFFF7FEBFFFF7FEBF012022
:1027C000704700000000000001020304010203043E
:0827D0000607080902040608CF
:040000050800264D7C
:00000001FF
